{
  "contractName": "Divisor",
  "abi": [
    {
      "inputs": [
        {
          "internalType": "uint256",
          "name": "nb1",
          "type": "uint256"
        },
        {
          "internalType": "uint256",
          "name": "nb2",
          "type": "uint256"
        }
      ],
      "name": "div",
      "outputs": [
        {
          "internalType": "uint256",
          "name": "",
          "type": "uint256"
        }
      ],
      "stateMutability": "pure",
      "type": "function"
    }
  ],
  "bytecode": "0x608060405234801561001057600080fd5b50610133806100206000396000f3fe6080604052348015600f57600080fd5b506004361060285760003560e01c8063a391c15b14602d575b600080fd5b606060048036036040811015604157600080fd5b8101908080359060200190929190803590602001909291905050506076565b6040518082815260200191505060405180910390f35b600080821160ec576040517f08c379a000000000000000000000000000000000000000000000000000000000815260040180806020018281038252601c8152602001807f44697669736f723a2063616e206e6f742064697669646520627920300000000081525060200191505060405180910390fd5b81838160f457fe5b0490509291505056fea264697066735822122061eaeca889ccb4aa072480a7922c150cb4dca4c34aa336974ad6e3236f6616c764736f6c634300060c0033",
  "immutableReferences": {},
  "source": "// SPDX-License-Identifier: MIT\npragma solidity ^0.6.0;\n\ncontract Divisor {\n    function div(uint256 nb1, uint256 nb2) public pure returns (uint256) {\n        require(nb2 > 0, \"Divisor: can not divide by 0\");\n        return nb1 / nb2;\n    }\n}\n",
  "sourcePath": "/Users/vladime/Documents/ALYRA/Calculator/contracts/Divisor.sol",
  "compiler": {
    "name": "solc",
    "version": "0.6.12+commit.27d51765.Linux.g++"
  },
  "schemaVersion": "3.3.1",
  "updatedAt": "2020-10-28T11:48:04.831Z",
  "devdoc": {
    "kind": "dev",
    "methods": {},
    "version": 1
  },
  "userdoc": {
    "kind": "user",
    "methods": {},
    "version": 1
  }
}